:020000040800F2
:10000000D8740020B1020008379A000875840008EF
:10001000DD8F00089314000875F50008000000004B
:10002000000000000000000000000000F1010008D6
:1000300075190008000000004D020008DDB400083A
:10004000CB020008CB020008CB020008CB0200085C
:10005000CB020008CB020008CB020008CB0200084C
:10006000CB020008CB020008CB020008991600085A
:10007000A9160008B9160008C9160008CB02000826
:10008000CB0200080000000055120008CB02000857
:10009000CDF400087D1900088D190008CB02000876
:1000A000CB020008CB0200089DB50008CB02000877
:1000B000CB020008CB020008CB020008CB020008EC
:1000C000CB020008CB020008CB020008CB020008DC
:1000D000CB02000809CC0008CB020008CB020008C4
:1000E000CB020008CB020008CB020008CB020008BC
:1000F000CB020008CB020008CB0200080000000081
:1001000000000000CB02000800000000CB02000845
:10011000CB02000800000000CB020008CB02000860
:10012000CB020008CB020008CB020008CB0200087B
:10013000CB0200080000000000000000CB02000815
:10014000CB020008CB020008000000000000000005
:10015000000000000000000000000000000000009F
:10016000000000000000000000000000CB020008BA
:10017000CB020008000000000000000000000000AA
:1001800000000000CB02000800000000000000009A
:10019000000000000000000000000000000000005F
:1001A0000000000000000000CB020008CB020008A5
:1001B000CB020008CB020008CB02000800000000C0
:1001C00000000000CB02000800000000000000005A
:1001D000CB020008CB020008DFF810D000F060FD71
:1001E00000480047F1080108AFF30080D8740020F0
:1001F0002C4B19680868B0E8F04F80F30988BFF30A
:100200006F8F4FF0000080F31188704700000000EE
:1002100008480068006880F308884FF0000080F309
:10022000148862B661B6BFF34F8FBFF36F8F00DFE4
:1002300000BF00BF08ED00E0DFF80C00016841F4EA
:1002400070010160704700BF88ED00E0EFF30980A6
:10025000BFF36F8F134B1A681EF0100F08BF20ED0D
:10026000108A20E9F04F106009B44FF0500080F37D
:100270001188BFF34F8FBFF36F8F11F0B9FA4FF0B2
:10028000000080F3118809BC19680868B0E8F04FD5
:100290001EF0100F08BFB0EC108A80F30988BFF37E
:1002A0006F8F704728070020EFF30580704700002C
:1002B0000648804706480047FEE7FEE7FEE7FEE700
:1002C000FEE7FEE7FEE7FEE7FEE7FEE789B500088A
:1002D000D90100082DE9F05F0546002092469B46B3
:1002E00088460646814640241BE02846414647464C
:1002F000224600F0D0F953465A46C01A914110D315
:1003000011461846224600F0B7F92D1A67EB01088E
:100310004F4622460120002100F0AEF917EB0009FC
:100320004E41201EA4F10104DFDC484631462A4636
:100330004346BDE8F09F2DE9F0410024061B254609
:1003400071F1000605DA01240027D0EB070067EB06
:100350000101161E73F1000605DA0027D2EB070231
:10036000012567EB0303FFF7B5FF86460E461746E8
:100370009C46AC4204D00025D0EB050E65EB01068F
:1003800024B10020D2EB000760EB030C704631462D
:100390003A466346BDE8F08140EA01039B0703D07B
:1003A00009E008C9121F08C0042AFAD203E011F8B4
:1003B000013B00F8013B521EF9D27047D2B201E076
:1003C00000F8012B491EFBD270470022F6E710B55A
:1003D00013460A4604461946FFF7F0FF204610BDB3
:1003E00030B505462A460B4612F8010B13F8014BAF
:1003F00008B1A042F8D01CB1002802D06D1CF1E772
:10040000284630BD421C10F8011B0029FBD1801A80
:1004100070472DE9F04D81EA030404F0004B21F010
:10042000004514464FF0000A23F0004150EA05024F
:1004300020D054EA01021DD0C5F30A570246C5F385
:100440001303C1F31300C1F30A5640F4801543F4BB
:100450008013A7EB0608101BD64608F2FD3873EB95
:10046000050002D308F1010801E092185B41B8F1E0
:10047000000F03DA00200146BDE8F08D00204FF4A4
:100480008011064684460EE0171B73EB050705D363
:10049000121B63EB050306434CEA010C49084FEAC3
:1004A000300092185B4150EA0107EDD152EA030097
:1004B00012D082EA040083EA0501084305D0101B2C
:1004C000AB4106D20122002306E000224FF0004398
:1004D00002E06FF0010253101AEB06004CEB0851DA
:1004E00010EB0A0041EB0B01BDE8F04D00F092B9B2
:1004F000F0B4CA17CB0F50405140C61841F1000567
:100500004FEAC372314628004FF0960303D0B6235A
:10051000F0BC00F028B930460021F9E770B5C1F30E
:100520000A5201F000450024C1F3130140F2FF33E9
:1005300041F480119A4201DA002070BD40F2334349
:100540009A42A2F2334203DC524200F0A4F800E0E7
:1005500090402C43F1D0404270BDC1F30A5210B517
:10056000C1F3130140F2FF3341F480119A4201DAE2
:10057000002010BD40F233439A42A2F2334203DC22
:10058000524200F088F810BD904010BD00F00042CB
:1005900030F000400AD0C10D01F56071C0F31600C3
:1005A00042EA0151C208400711437047002001464A
:1005B0007047000030B5041E71F1000404DB4FF0F9
:1005C0000044404264EB0101141E73F1000405DB9A
:1005D0001C464FF00043524263EB04038B4208BFBA
:1005E000824230BD30B5041E71F1000404DB4FF0CF
:1005F0000044404264EB0101141E73F1000405DB6A
:100600001C464FF00043524263EB0403994208BF7B
:10061000904230BD01F0004330B421F0004150EA77
:10062000010206D00A0DA2F56072C1F31301002A7F
:1006300002DC30BC00207047440F44EAC104C10012
:10064000E01830BC00EBC25000F084B830B50B4667
:10065000014600202022012409E021FA02F59D42F2
:1006600005D303FA02F5491B04FA02F52844151EC6
:10067000A2F10102F1DC30BD202A04DB203A00FAAD
:1006800002F1002070479140C2F1200320FA03F3E9
:10069000194390407047202A04DB203A21FA02F0E7
:1006A0000021704721FA02F3D040C2F120029140AC
:1006B00008431946704700000FB4002300B589B005
:1006C0000CA900910B996FF00042CB601E4B069372
:1006D0001E4B07930423CDE901321D4A08920246BE
:1006E0006B46002000F09AFB09B05DF814FB70B572
:1006F00086B006464FF0FF300091CDE901010020A1
:1007000015460C4604903246694604A8FFF7D4FF0C
:1007100002460498211825B108B1084600E0204699
:100720002860049800280DD0002A02DD0098884235
:1007300008D0081B0094CDE901043246694604A89C
:10074000FFF7BAFF06B070BD55100008731000081F
:10075000E90C00080029A8BF7047401C490008BFE9
:1007600020F00100704710B4B0FA80FC00FA0CF0E1
:1007700050EA010404BF10BC704749B1CCF1200419
:1007800021FA04F411FA0CF118BF012121430843A6
:10079000A3EB0C01CB1D4FEA00614FEA102042BFD2
:1007A000002010BC704700EBC35010440029A4BFC8
:1007B00010BC7047401C490008BF20F0010010BC6D
:1007C0007047F0B400F0004221F0004120F00040FA
:1007D000CE0DC30DC1F3160141F40001C0F31600A4
:1007E0004C42154640F40000761E09E010EB440030
:1007F00002D582F0004240428842F7D840005B1E9A
:10080000B342F9DA18B1F0BC0021FFF7ACBF2846BB
:10081000F0BC704710B5141E73F1000408DA401CD8
:1008200041F1000192185B411A4301D120F001000F
:1008300010BD2DE9F04D92469B4611B1B1FA81F2FF
:1008400002E0B0FA80F220329046FFF715FF04462E
:100850000F4640EA0A0041EA0B0153465A46084354
:1008600013D0114653EA010019D0C8F14002504696
:10087000FFF711FF05460E46504659464246FFF720
:10088000FBFE084305D0012004E020463946BDE8C0
:10089000F08D0020054346EAE0762C4337430A9862
:1008A0006305E40AA0EB08000022FD0A44EA47546D
:1008B0000A3002D500200146E9E701051019694117
:1008C000DDE9084500196941BDE8F04DA2E72DE9D1
:1008D000FE4F804681EA0300C00F0C46009021F0D5
:1008E000004123F00045B8EB0200A94105D2404683
:1008F000214690461C460B46024623F0004010431A
:1009000047D0270DC7F30A00C3F30A510290401ADB
:10091000019040286BDAC3F3130040F4801B009869
:10092000924620B10023D2EB030A63EB0B0B019834
:100930005946C0F140025046FFF79EFE06460D465E
:1009400050465946019A00F0BDF910EB080061418C
:10095000002487EA115284EAE7731A4340D0009AD0
:1009600062B3019A012A4FEA075215DC001B61EBC2
:1009700002014FF0004202EA0752CDE90042001C9A
:1009800041F5801132462B46FFF753FF03B0BDE817
:10099000F08F40462146F9E7001B61EB0201001C85
:1009A00041F5801300185B412018A2F5001747EBB2
:1009B000030140EAD570B6196D4111E06D084FEAA8
:1009C000360645EAC0754FEA0752001B61EB02018B
:1009D000001C41F5801149084FEA300000195141CF
:1009E00032462B4603B0BDE8F04FFFF713BF009827
:1009F000012240000023D0EB020263EBE073009879
:100A000021464FEAE074B8EB000061EB0401E9E72E
:100A100083F000435BE781F0004158E72DE9FE4F8A
:100A200081EA030404F0004421F0004100944FF0F7
:100A3000000B23F0004350EA01045ED052EA0304A5
:100A40005BD0C3F30A54C1F30A552C44A4F2F33427
:100A50000194A0FB0254C1F3130141F48011C3F3CC
:100A6000130343F4801301FB024400FB034E840A8A
:100A7000970A44EA815447EA8357A4FB0768029522
:100A80008D0A05FB07854FEA932C04FB0C542705C0
:100A9000029D4FEA065847EA1637B5EB08056EEB9C
:100AA000070C870E920E47EA811742EA8312A7FBD2
:100AB0000201B6EB0B0164EB00042B0D43EA0C338F
:100AC0005E1844EB1C50DA465146E7FB0201C5F3C1
:100AD00013044FEA0B3343EA14534FEA0432019CE8
:100AE00043EA0603A4F10C040294009CCDE900B48F
:100AF000FFF79FFE03B0BDE8F08F00200146F9E745
:100B00002DE9F041054621F000400C46284309D06C
:100B1000C4F30A5040F23341884205DD284621469D
:100B2000BDE8F0812846FBE740F2FE31884210DC48
:100B30000CDB4FEA043040EA155050EA053105D08D
:100B4000104804F0004101430020E9E7002001467D
:100B5000E6E7A0F233404642C6F14002284621466D
:100B6000FFF78AFD07468846284621463246FFF7AA
:100B700092FD43463A46FFF74DFE3246BDE8F0414E
:100B8000FFF77ABD0000F03F2DE9FE4FC3F30A578F
:100B900001F000450024C1F30A56C3F31303C1F367
:100BA000130143F4801312EB020AA64641F48011AC
:100BB000009543EB030CA7F1010B16E0B0EB0A0024
:100BC00061EB0C01071E71F1000707DA4FF0000816
:100BD000D0EB080085F0004568EB0101171A73EBB4
:100BE0000107EBD3761E001849415E45F6DA50EA5C
:100BF000010209D0CDE900E5002213460296FFF775
:100C000018FE03B0BDE8F08F20460099F9E7C1F364
:100C10000A52C1F3130140F2FF3341F480119A42AA
:100C200002DA00200146704740F233439A42A2F2B2
:100C3000334202DC5242FFF72EBDFFF71DBD70B5F7
:100C4000044601F000450020054304D14FF0004563
:100C5000644265EB010103F00045284305D11846C5
:100C60004FF00043524263EB0003101B73EB010093
:100C700002D24FF0004009E082EA040283EA010355
:100C80004FF000501A4301D14FF0C0404FEA2062AC
:100C9000EFF3008162F31F6181F3008870BD0000F3
:100CA000064C074D06E0E06840F0010394E80700B9
:100CB00098471034AC42F6D3FFF792FA842B010820
:100CC000A42B0108202A06DBCB17203A41FA02F0B8
:100CD00043EAE07306E041FA02F3D040C2F1200299
:100CE0009140084319467047C0B24FF4F05100F0EC
:100CF000D1B900002DE9FF4F087883B09946FF284D
:100D000005D0491C2D2804D00024002008E0002034
:100D10000BE00124F9E700EB800003EB4000491CE5
:100D20000B78FF2BF7D104B14042002302931478D3
:100D300019461D462D2C01D02B2C04D1521C2D2CD4
:100D400013D000240294AA461478FF2C0FD00A2551
:100D5000A3FB057801FB05814FF0000C03FB0C1190
:100D6000521CE3194AEB0101EEE70124EAE7814452
:100D700053EA010002D019F5C87F06DA0398002172
:100D8000C0E9001107B0BDE8F08F0025AE4E2F4638
:100D9000DFF8B882184600F091F9CDE90001B9F109
:100DA000000002DAC9F1000400E004460023A74A6B
:100DB0001AEB030B42EB045A12E0E00707D02A4675
:100DC000334638464146FFF729FE074688462A46FD
:100DD000334610461946FFF721FE05460E466410BD
:100DE000002CEAD1DDE90001B9F1000F5A46534663
:100DF00006DAFFF70EFB3A464346FFF70AFB05E02B
:100E0000FFF70CFE3A464346FFF708FE029A0AB186
:100E100081F00041039AC2E90001B3E72DE9FF4FD9
:100E20001F468DB0D7E901464FF0FF382E204546CA
:100E30004FF000090B90B9696D1C0E988847396A0C
:100E4000824688470028F6D1BAF1FF3F0AD024F441
:100E5000D064002E11DDBAF12B0F08D0BAF12D0F9E
:100E60000BD102E0404611B08DE744F48064B969CB
:100E70006D1C0E9888478246761E6946600501D52E
:100E80002D2000E02B208DF8000001F1010B0DF169
:100E9000200809E0B9696D1C0E98884782460F98B2
:100EA00044F40074761E0560002E02DDBAF1300FA6
:100EB000F0D00B998A453ED144F0800406E00F99AA
:100EC000681CA9F1010944F400740860B9696D1C3B
:100ED000761E0E98884782463028F0D02BE00B997A
:100EE0008A4505D1200603D444F08004761E18E01C
:100EF00050460EF04BFF08B30DF11301761E44F47B
:100F000000748B4508D2AAF130000BF8010B2006C3
:100F100007D5A9F1010003E0200602D409F1010080
:100F20008146A00502D50F99681C0860B9696D1C3F
:100F30000E9888478246002ED1DC53E0002E51DD0A
:100F4000BAF1650F02D0BAF1450F4BD1A00549D5D2
:100F5000B9696D1C24F44074761E0E988847824649
:100F6000002E0CDD2B2804D0BAF12D0F07D144F44C
:100F70008074B9696D1C0E9888478246761EE0051C
:100F800001D52D2100E02B2108F8011BCDF82C8084
:100F900021E00DF12901761E44F4007488450CD23D
:100FA000AAF1300010F0FF0088F8000002D10B9980
:100FB000884509D908F1010806E0E00501D5244873
:100FC00001E042F20F708146B9696D1C0E988847A6
:100FD00082460F980560002E04DD50460EF0D6FEC6
:100FE0000028D6D1F9690E988847FF208BF80000B9
:100FF00088F800000020069007904B466A4608A932
:1010000006A8FFF777FEA00502D46FF001002AE7DB
:1010100014F0240F0AD0E00714D1DDE90612386875
:10102000031D3B600068C0E900120BE0DDE906012A
:10103000FFF7F0FA0146E00704D13868021D3A6074
:101040000068016028460EE7000014400000F03FF1
:10105000F1D8FFFF426842B1016811F8013B23B1AA
:10106000521EC0E90012184670470121C160881E57
:10107000704742685AB1C368016843B983688B42BC
:1010800005D0491E521CC0E90012002070474FF0E5
:10109000FF3070477F2801D9002208E0064A02EBA2
:1010A0005002C007127800D1120902F00F0201208D
:1010B00090400840704700001A2301080EB540F226
:1010C000334202920022CDE900221346FFF7B1FB22
:1010D00003B000BD70B58C1810F8015B15F0070364
:1010E00001D110F8013B2A1106D110F8012B03E0C1
:1010F00010F8016B01F8016B5B1EF9D12B0705D4C9
:101100000023521E0DD401F8013BFAE710F8013B11
:10111000CB1A921C03E013F8015B01F8015B521E2D
:10112000F9D5A142D8D3002070BD00009FED221A4E
:101130009FED222A20EE010AB5EE001A30EE010AD8
:10114000BDEEC01A11EE100AB5EE400AF1EE10FA2B
:10115000B8BF013801EE100AB8EEC11A30EE410AEC
:1011600020EE020ABDEEC01A9FED152A11EE100AFC
:10117000002130EE021AB1EB502F42F280311CBF39
:101180000020B0EE410AC0F6010101EE100A01EBA9
:101190008001B8EE411A30EE410A91ED001A91ED4E
:1011A000012AB7EE003A33EE403A23EE011A20EE60
:1011B000020A31EE000A704783F9223E0000004423
:1011C000000000C49FED201A9FED202A20EE010AA6
:1011D000BDEEC01A11EE100AB5EE400AF1EE10FA9B
:1011E000B8BF013801EE100AB8EEC11A30EE410A5C
:1011F00020EE020ABDEEC01A9FED152A11EE100A6C
:10120000002130EE021AB1EB502F42F280311CBFA8
:101210000020B0EE410AC0F6010101EE100A01EB18
:101220008001B8EE411A30EE410A91ED001A91EDBD
:10123000012AB7EE003A33EE403A23EE011A20EECF
:10124000020A31EE000A704783F9223E0000004492
:10125000000000C410B5034801F09AFF024801F0F5
:1012600097FF10BDF00900205C0A002070B505460C
:10127000AC6AE06D00F0500098BBE06D40F4007087
:10128000E0652068006800F00800A8B1206807F059
:10129000DBF910B32068C06800F40050E8B9E06DD5
:1012A00020F48070E065E06D00F48050A8B9E06D36
:1012B00040F00100E06510E02068C06800F0020026
:1012C00058B9E06D20F48070E065E06D00F4805066
:1012D00018B9E06D40F00100E065204601F054FFD0
:1012E0000CE0FFE7E06D00F0100018B1204601F0BF
:1012F0004DFF03E0606D416B2846884770BD70B5B7
:101300000546AC6AE06D40F04000E065206E40F0BC
:1013100004002066204601F039FF70BD70B5044618
:10132000A56A284601F031FF70BD000070B5044683
:10133000206807F06BF90646206807F06CF998B34F
:1013400096BB2068806800F00D0001280AD1206853
:1013500081681A4A1140891C816000BF03202168FE
:10136000086009E0E06D40F01000E065206E40F09C
:1013700001002066012070BD03F07EF9054614E0EF
:1013800003F07AF9401B02280FD92068806800F02A
:10139000010050B1E06D40F01000E065206E40F0BB
:1013A000010020660120E6E705E02068806800F083
:1013B00001000028E4D10020DDE70000C0FFFF7F2E
:1013C00038B5044600200090206807F024F9002872
:1013D0004FD1206880682849084048B1E06D40F04E
:1013E0001000E065206E40F001002066012038BD4D
:1013F000206807F0D3F800BF2048806800F0E07054
:1014000000F4000080B11E4800681E49B0FBF1F0F6
:10141000401C00EB40008000009002E00098401E5D
:10142000009000980028F9D103F026F905461AE04B
:10143000206807F0F0F810B9206807F0AFF803F063
:101440001BF9401B02280ED92068006800F001003B
:1014500048B9E06D40F01000E065206E40F00100FA
:1014600020660120C3E72068006800F00100002822
:10147000DED00020BBE700003F00008000030050EA
:101480001C000020400D030010B5A82000F0D6F984
:1014900010BD00BFFEE70346042B15D007DC7BB16F
:1014A000012B0ED0022B0DD0032B12D10BE0202BE1
:1014B0000BD0212B0AD0222B09D0232B09D107E0F6
:1014C00008E007E006E005E004E003E002E001E0F8
:1014D00000E000BF00BF0020704700207047000000
:1014E00010B50022044905480BF04BFE044903489F
:1014F0000BF03CFE002010BDF01C0020201400204A
:10150000F018002070B505460C4629460D480BF032
:101510002DFE0C480BF0F8FD206880B1287870B1E2
:101520002068B0F5803F02D34FF6FF7001E02088BD
:1015300080B206463146284610F0AEF900BF0020C2
:1015400070BD00002014002010B503460C46002199
:10155000084610BD2DE9F04104460D4600260A4814
:10156000D0F8BC72D7F8140210B10120BDE8F081A8
:101570002A46214604480BF004FE03480BF09DFE6A
:1015800006463046F2E7000020140020416BC1659A
:10159000816B00EE101AC16B00EE901A30EE600AFB
:1015A000DFED030A20EE200A10EE101A01667047E4
:1015B0003ACD133F10B5044633480088401C3249E9
:1015C0000880A068D0ED050A3048006800EE100AD7
:1015D000B8EE400A30EE800AA06880ED050AA068E7
:1015E000D0ED060A4FF0A040D0F8840000EE100ABB
:1015F000B8EE400A30EE800AA06880ED060AA068C6
:10160000D0ED070A21480838006800EE100AB8EE4D
:10161000400A30EE800AA06880ED070A084600887C
:10162000B0F57A7F2ED300200880204606F03AFFDE
:10163000A06890ED050ADFED160A80EE201A80ED15
:10164000021AA06890ED060ADFED110A80EE201A5A
:1016500080ED031AA06890ED070ADFED0D0A80EE19
:10166000201A80ED041A9FED0B0AA06880ED050A90
:101670009FED080AA06880ED060A9FED060AA068A3
:1016800080ED070A10BD0000AC0600208800005065
:1016900000007A440000000010B5024802F0A5FAEC
:1016A00010BD0000240D002010B5024802F09DFA84
:1016B00010BD0000C80A002010B5024802F095FADB
:1016C00010BD0000180E002010B5024802F08DFA7F
:1016D00010BD0000780E002030B50E4D0468AC42FD
:1016E00001D20D4901E00C4920310B460478083C39
:1016F0001425B4FBF5F2446CA40803EB8404846461
:10170000054C8034C46402F01F050124AC4004651C
:1017100030BD0000080402400008024001794A1E62
:10172000064B03EB82024265044A403282654A1E40
:1017300002F01F0301229A40C2657047000902406F
:1017400030B5D0E913546C60446D14B1D0E916542F
:101750006C6090F8444004F01F050124AC40056C17
:101760006C60046863608468102C04D10468A26013
:101770000468E16003E00468A1600468E26030BDD1
:1017800008B50848406800900749009809688842F1
:1017900004D206480068401C0449086002490098C9
:1017A000086008BD001000E0D0010020CC0100203E
:1017B0000C494868F0EE400A00BF0A494968091A16
:1017C00001EE101AF8EE411A074991ED001AB8EE31
:1017D000411A20EE811AF4EEC11AF1EE10FAECD3A0
:1017E00070470000001000E0C001002010B52DED92
:1017F000028B00F057F80F4880880E49096801EB0A
:101800004102C2EBC11100EBC10000EE100AB8EEBC
:10181000400A0848C08800EE900AF8EE600A9FED82
:10182000061A00EE810AB0EE408AB0EE480ABDEC1E
:10183000028B10BDB80100206F12833A124909686B
:1018400041F08071104A11600021104A5160114628
:10185000096841F0010111600D4941430D4A1160D1
:10186000114609684FF47A72B1FBF2F10A4A11602D
:1018700008490968064AB1FBF2F1084A11600021E3
:10188000074A116070470000FCED00E0001000E026
:1018900040420F00C0010020C4010020C801002008
:1018A000CC01002038B5294840680090FFF768FF58
:1018B000274800684FF0FF31A0FB0131009818184D
:1018C00041F10001234A03C2234800232149026851
:1018D00003C9FEF7FFFC214A03C220480CC81E487A
:1018E00000680024A2FB001503FB005002FB040269
:1018F0001848D0E90030591A60EB0200184AC2E9D2
:10190000001016480068174908601748002314495A
:10191000026803C9FEF7DEFC124988800846808809
:101920001149096841430E48D0E90030591A60F165
:1019300000000E4AC2E900100D4800230B4902685E
:1019400003C9FEF7C7FC0749C88038BD001000E096
:10195000CC010020D8010020C0010020E0010020BF
:10196000E8010020B8010020C4010020F00100209F
:10197000C8010020704772B600BFFEE710B50248EC
:1019800002F035FB10BD00004C0B002010B50248E2
:1019900002F02DFB10BD00004C0B00207CB505466D
:1019A0000E4638E06B46204A3146284602F076FA69
:1019B00000242CE01D4850F824000068A84225D1DE
:1019C00019480068194951F82410096C88421DD142
:1019D000164850F82400806CB8B11348007B1349B6
:1019E00051F8241081F844000F49CA680F4951F892
:1019F000241001F138006946FEF7CEFC0B4A52F87C
:101A0000240052F82420916C88477CBD641C08484F
:101A100000788442CED33146284602F030FA0028BE
:101A2000C0D100BFF1E700001C21002004210020EC
:101A3000F801002010B5194901640368D3F880301B
:101A400023F4F814838E44EA03430468C4F8803016
:101A500001F1700343640368D3F8803023F07064AD
:101A600090F8383044EA03630468C4F8803001F128
:101A7000B003836401F5C473C36401F5187303658F
:101A800001F51E7343650A4602E000231360121D30
:101A900001F554739A42F8D310BD000000A4004031
:101AA0009FED0A0A10EE101AC1649FED080A10EEAD
:101AB000101A01659FED050A10EE101A81629FED64
:101AC000030A10EE101AC162704700000000000007
:101AD00090ED060AD0ED0E0A60EE200A416891F8FA
:101AE000181200EE101AB8EE400A20EE800ADFED60
:101AF000180A20EE200A80ED110A90ED050AD0EDBB
:101B00000E0A60EE200A416891F8181200EE101AD1
:101B1000B8EE400A20EE800ADFED0D0A20EE200A22
:101B2000DFED0C0A20EE200A80ED120A90ED110A7A
:101B300080ED300A90ED120A80ED310A90ED110A25
:101B400080ED1E0A90ED120A80ED1F0A704700001A
:101B5000DB0FC94017B7513810B52DED088B86B093
:101B60000446F0EE409AB0EE60AAB0EE41BAE06BE7
:101B700001EE100AA06B00EE900A606B00EE100AF6
:101B800004A905A80EF0EAFC02A903A8B0EE4B1ABE
:101B9000DDED040A9DED050A0EF0DCFF02982065DC
:101BA000E06800EE100A206D00EE900A70EE600A08
:101BB000E06800EE100A9FED361A01EE600A10EEA2
:101BC000100AE0600398E064206900EE100AE06CFF
:101BD00000EE900A70EE600A206900EE100A9FED98
:101BE0002C1A01EE600A10EE100A2061206800EE47
:101BF000100AF0EE000A60EE200AB0EE081A80EE3D
:101C0000810AF7EE000A80EE801AF0EE41AA2AEE71
:101C1000A90AF0EE408A2AEE8A0AB0EE408A68EEFF
:101C2000A80A48EE080AB0EE600A0DF099FFDFED51
:101C3000190A80EE801AB0EE419AB7EE000AB4EEAF
:101C4000C09AF1EE10FA07D228EE890AF0EE408A27
:101C500028EE090AB0EE408A694601A8B0EE4B1A98
:101C6000F0EE480AB0EE680A0EF018FE04F17402B5
:101C7000111F081FDDED000A9DED010A0FF0A6FA05
:101C800010B9204609F056F906B0BDEC088B10BD1E
:101C90000AD7233C4188473F10B500201049096806
:101CA000C8630F49096888630D49096848630021C2
:101CB0000B4805F0B1FC0421094805F0ADFC0821F2
:101CC000074805F0A9FC0021054805F0CBF80421E0
:101CD000034805F0C7F80821014805F0C3F810BD16
:101CE0008C0C002010B540F6340013490968C86315
:101CF00011490968886310490968486300210E4842
:101D000005F08AFC04210C4805F086FC08210A48ED
:101D100005F082FC0C21084805F07EFC00210648F5
:101D200005F0A0F80421044805F09CF808210248B9
:101D300005F098F810BD00008C0C0020816809683F
:101D40000968D1F8881000EE101AB8EE400A8168D0
:101D5000D1ED020A30EE600ADFED220A20EE200A01
:101D600010EE101A02685163816809680968D1F899
:101D7000841000EE101AB8EE400A8168D1ED030A13
:101D800030EE600ADFED170A20EE200A10EE101A7E
:101D900002689163816809680968D1F8801000EED3
:101DA000101AB8EE400A8168D1ED040A30EE600ADC
:101DB000DFED0C0A20EE200A10EE101A0268D16343
:101DC000816809680968D1F88C1000EE101AB8EE25
:101DD000400ADFED050A20EE200A10EE101A026814
:101DE000116070476740533A473C113C2DE9F0477A
:101DF0002DED0C8B044620460EF0EAFD60B1D4F8C0
:101E00002402012803D1E068C4F8200204E0E0685D
:101E1000C0F58040C4F82002D4F82002C11104F1BA
:101E2000140050F821700122D4F8201202EBE110C6
:101E3000C11700EB5161C911A0EBC11204F11401EB
:101E400051F82280D4F82002C111A0EBC110A8EBF8
:101E50000701484307EBE019D4F82002A0EB09067C
:101E6000B6F5804F02D9A6F5804603E0002E01DAD0
:101E700006F58046C4F81C62D4F82C12D4F81C0273
:101E8000451A4FF4804128460EF096FD0546B5F5FB
:101E9000005F01D9A5F5804504F50774A0692844C1
:101EA000A0612069284420614FF4804120690EF030
:101EB00083FD20612068206194ED080AD4ED090AB1
:101EC0009FEDA71A01EE200A84ED080A94ED0A0A94
:101ED000D4ED090A9FEDA21A01EE200A84ED0A0A48
:101EE00094ED080A10EE101A0846FEF74FFB41EC7D
:101EF0001D0BB0EE4D0AF0EE6D0A0DF021FCB0EEB8
:101F000040CAF0EE60CA51EC1C0BFEF707FBA1695A
:101F1000081A00EE100AF8EEC09A94ED0A0A10EEC4
:101F2000101A0846FEF732FB41EC1D0BB0EE4D0ACD
:101F3000F0EE6D0A0DF004FCB0EE40CAF0EE60CA9F
:101F400051EC1C0BFEF7EAFA2169081A00EE100AA0
:101F5000B8EEC00AB0EE409ADFED820AB0EE490A50
:101F60000FF047FEB0EE409A94ED080ADFED7E0ACE
:101F700000EEA90A84ED080A94ED0A0ADFED7A0A58
:101F800000EE890A84ED0A0AD4ED0A0AB0EE600A6E
:101F9000DFED760A0EF03CFC84ED0A0A94ED090AA6
:101FA000DFED730A00EE890A84ED090A4FF0000A9A
:101FB00094ED090AA4F50774B5EEC00AF1EE10FA23
:101FC00002DD94ED900A03E094ED900AB1EE400A30
:101FD000DFED680AB4EEE00AF1EE10FA05D29FEDEB
:101FE000660A84ED900A4FF0010A94ED94AA94EDEC
:101FF0008F0ADFED5E0A80EE201A84ED921A94EDCE
:10200000900ADFED5A0A80EE201A84ED931A94EDBF
:102010008F0ADFED560A80EE201A84ED921A94EDB5
:10202000900ADFED520A80EE201A84ED931A94EDA7
:10203000910ADFED4E0A80EE201A84ED941AD4ED59
:10204000940A70EECA0AB0EE600AF6EE000A0FF0CB
:10205000D0FDF0EE40AA94ED8B0AB8EEC00AD4EDA4
:102060009A0A30EE600ABDEEC08ABAF1000F04D0C1
:10207000B6EE000A84ED960A2FE0002D04DD9FEDF8
:102080003E0A84ED960A28E0002D04DAB7EE000A35
:1020900084ED960A21E094ED960AD4ED900A9FED26
:1020A000301A01EE200A84ED960A94ED960AF7EEB6
:1020B000000AB4EEE00AF1EE10FA03DDB7EE000A12
:1020C00084ED960A94ED960AB5EEC00AF1EE10FA88
:1020D00003D29FED290A84ED960A94ED960AF8EE54
:1020E000C80A30EE20BA94F8180200EE100AB8EED2
:1020F000400ADFED220A20EE200ADFED210A60EE21
:1021000020BA6BEE8B8A00BFDFED1E0AB0EE680AC4
:102110000FF06FFD84ED950AF8EEC80A9FED1A1ACC
:1021200060EE810A9FED191A60EE810AB0EE600A36
:102130000EF09EFC84ED980A94F8180200EE900AC6
:10214000F8EE600A94ED981A60EE810AB0EE600A2B
:102150000EF08EFC84ED990ABDEC0C8BBDE8F08787
:1021600017B7513800000046CCCC4C3E00008046EA
:10217000000048430000C84200000000DB0FC940D7
:1021800000008038DB0F49400000B43C35FA8E3C3B
:102190002DE9F04302460D464FF07E0C00BF0020B3
:1021A000ACF10104E1B242E0DFF8248138F810809C
:1021B000904536DB0C1804EBD4784FEA6808A4EBA2
:1021C0004808B8F1000F05D10F1807EBD7784FEA90
:1021D000680806E00E1806EBD6784FEA680808F1A2
:1021E0000108DFF8EC9039F81880904519DA0F18DB
:1021F00007EBD7784FEA6808A7EB4808B8F1000F5B
:1022000005D10E1806EBD6784FEA680806E00C18E0
:1022100004EBD4784FEA680808F1010808F0FF01E0
:1022200005E00C1804EBD476C6F3470630460C1ACA
:10223000012CB9DC264C34F81040944205D1A0F1B1
:10224000140404EB8404630035E0214C34F811409D
:10225000944205D1A1F1140404EB840463002AE044
:102260001B4C34F810401A4E36F81160A41B05D1EF
:10227000A0F1140404EB840463001CE0144C34F853
:102280001040A41A04EBC40606EB0414052606EB62
:1022900084040A2694FBF6F40D4E36F810600C4FB9
:1022A00037F81170F61B94FBF6F6A0F1140404EB5A
:1022B000840406EB440300EE103AB8EEC00AF2EED6
:1022C000040A80EE201A85ED001ABDE8F0830000B4
:1022D0001E22010870B50A480468001D0568001D2B
:1022E0000668344454B108220649204606F0E5F851
:1022F000042204491031284606F0DFF870BD0000C2
:102300009075FF1F5A000020F8B504460D460020C6
:10231000009000BF94F85800012801D10220F8BDB8
:10232000012084F8580000BF2046FEF7FFFF064654
:102330008EBBE06D20F4885040F00200E06520681C
:1023400081681B4A114005F0804242F0004211436F
:10235000816000BF13E00098401C00901549009870
:1023600088420CD3E06D20F0020040F01000E065E0
:1023700000BF002084F8580000BF0120CFE720688C
:102380008168C90F0029E6D1E06D20F0020040F01D
:102390000100E06504E0FFE7E06D40F01000E0655B
:1023A00000BF002084F8580000BF3046B7E70000A7
:1023B000C0FFFF3F02DE0400704700002DE9FC5F14
:1023C00005460C460020019000900027686900B186
:1023D00000BFFE49E068884200D000E000BF00BFB7
:1023E00095F85800012802D10220BDE8FC9F012089
:1023F00085F8580000BF686910B1206A01281ED115
:10240000606809284ED1A06A60B194F8280000F0F5
:102410007C002168C1F3846140EA4120E16A40EA1E
:10242000010703E02068C0F3846047022868C06C9D
:10243000E749084038432968C8646F6632E0A86EEF
:1024400090B9216AA96600206866A06A50B1206A26
:10245000401E94F8281001F07C010843E16A40EA2C
:10246000010701E0206A471E207900F01F010020CB
:10247000884087432068C0F38460217901F01F0100
:1024800088400743A86E401EA866686E3843686699
:10249000A86E38B92868C06CCD490840696E0843F9
:1024A0002968C864286806F0A2F8D8B994F825000D
:1024B00070B994F82600400594F8241040EA0150C1
:1024C0002968C96821F4401108432968C86009E0F7
:1024D0002868C06820F4401094F8261040EA415063
:1024E0002968C860286806F0AAF88246286806F0BD
:1024F0007EF88146BAF1000F7ED1B9F1000FFBD111
:10250000A06A08B1E06A88B994F82500012806D1CC
:102510002868C06840F000702968C86017E0286823
:10252000C06820F000702968C86010E094F82500A9
:10253000012806D1E86D40F02000E86501200190F7
:1025400005E02868C06820F000702968C86094F829
:10255000300001280CD1606B40F00200A16B0843F1
:102560002968096921F4FF7108432968086105E0B9
:102570002868006920F0020029680861A068B0F1AD
:10258000004F0AD121680022286806F083F84FF036
:102590000041286806F0BAF808E0A26821682868B7
:1025A00006F078F80021286806F0B0F8606929681C
:1025B000C968C1F3C101490000FA01F82069042883
:1025C00040D028682268216900F1600C0CEB81037F
:1025D000D3F800C0DFF8FCB10CEA0B0C02F0F84BAA
:1025E0004BF0004B4BEA080B4CEA0B0CC3F800C055
:1025F00000BF2868A26900E0CCE0216900F1600C0E
:102600000CEB8103D3F800C02CF0807C4CEA020C68
:10261000C3F800C000BF2868227F2169012A01D1C8
:10262000520600E00022134600F1600C0CEB810220
:10263000D2F800C02CF0007C4CEA030CC2F800C0B9
:1026400000BFA7E00021286805F0BEFFC0F312001C
:1026500030B90021286805F0B7FFC0F3846007E0B7
:102660000021286805F0B0FF90FAA0F0B0FA80F0E1
:102670002168C1F3120119B92168C1F3846104E032
:10268000216891FAA1F1B1FA81F1884204D10022C6
:102690001146286806F029F80121286805F094FF02
:1026A000C0F3120030B90121286805F08DFFC0F396
:1026B000846007E00121286805F086FF90FAA0F009
:1026C000B0FA80F02168C1F3120119B92168C1F391
:1026D000846104E0216891FAA1F1B1FA81F18842A4
:1026E00004D100220121286805F0FFFF022128689B
:1026F00005F06AFFC0F3120030B90221286805F026
:1027000063FFC0F3846007E00221286805F05CFFE6
:1027100090FAA0F0B0FA80F02168C1F3120119B963
:102720002168C1F3846104E0216891FAA1F1B1FA52
:1027300081F1884204D100220221286805F0D5FFEA
:102740000321286805F040FFC0F3120030B90321CF
:10275000286805F039FFC0F3846007E0032128688A
:1027600005F032FF90FAA0F0B0FA80F02168C1F3D2
:10277000120119B92168C1F3846104E0216891FA5A
:10278000A1F1B1FA81F1884204D100220321286825
:1027900005F0ABFF286805F043FF002873D12868D7
:1027A000E2682168D0F8B030C1F3120C23EA0C03C0
:1027B00002F0180BDFF820C02CFA0BFC0CEA010C1D
:1027C00043EA0C03C0F8B03000BF07E000007F40D0
:1027D0000040100400F0FF03FFFF07007849E068A5
:1027E000884250D12368C3F312031BB92368C3F393
:1027F000846304E0236893FAA3F3B3FA83F35B1CC6
:1028000003F01F03092B3FD82368C3F312031BB93E
:102810002368C3F3846304E0236893FAA3F3B3FA51
:1028200083F35B1C03F01F034FF0010C0CFA03FC55
:102830002368C3F312031BB92368C3F3846304E062
:10284000236893FAA3F3B3FA83F35B1C03F01F032B
:102850004CEA836C2368C3F312031BB92368C3F3E8
:10286000846304E0236893FAA3F3B3FA83F35B1C55
:1028700003F01F0303EB43034FF0000B4BEA03533A
:102880004CEA03033FE043E02368C3F312031BB9A0
:102890002368C3F3846304E0236893FAA3F3B3FAD1
:1028A00083F35B1C03F01F034FF0010C0CFA03FCD5
:1028B0002368C3F312031BB92368C3F3846304E0E2
:1028C000236893FAA3F3B3FA83F35B1C03F01F03AB
:1028D0004CEA836C2368C3F312031BB92368C3F368
:1028E000846304E0236893FAA3F3B3FA83F35B1CD5
:1028F00003F01F030A3B03EB43034FF0007B4BEA5B
:1029000003534CEA03031946A268286805F0C2FE87
:102910002C492068084050B300BF2B48806800F065
:10292000E07600BF29492068884203D02849206802
:1029300088421DD106F40000D0B92868B0F1A04F3C
:1029400037D146F40001204805F0BEFE214800685A
:102950002149B0FBF1F0801C00EB400080000090AA
:1029600002E00098401E009000980028F9D120E075
:102970001A49206888420CD106F0807048B918497D
:102980002868884215D046F080710F4805F09CFEFB
:102990000FE01449206888420BD106F4800040B94A
:1029A0000F492868884204D046F48001064805F0A3
:1029B0008BFE00BF002085F8580000BF019814E589
:1029C00000007F400000088000030050000021C389
:1029D0001000C0901C000020400D0300000052C7F2
:1029E00000010050000084CB10B504460648844224
:1029F00009D10648FFF7A2F904494868FFF7F6F93C
:102A0000024806F0D3FF10BDF00900201405002095
:102A1000704700002DE9F041044600BF524880682D
:102A200000F01F000546206805F0E1FD10B102200E
:102A3000BDE8F0812068C06800F000472068C06CE5
:102A400000F4C07030B92FB9E06D40F02000E065AF
:102A50000120EDE700BF94F85800012801D10220C1
:102A6000E6E7012084F8580000BF2046FEF7A8FCE6
:102A70000646002E70D1E06D00F4807020B1206E0B
:102A800020F00800206601E000202066E06D42F2A0
:102A90000101884340F48050E06534492068884251
:102AA00002D14FF0A04000E020682168884200D0A9
:102AB0001DB9E06D20F48010E06560202168086099
:102AC00000BF002084F8580000BF2068C06800F4F0
:102AD000001028B12068406840F480602168486098
:102AE000A06908280CD12068406820F020002168E7
:102AF00048602068406840F04000216848600CE071
:102B00002068406820F040002168486020684068E4
:102B100040F020002168486000BF00BF13492068D2
:102B2000884202D14FF0A04000E02068216888422E
:102B300004D01DB1062D01D0072D07D1206805F066
:102B40004CFD70B9206805F057FD0AE0E06D40F4D7
:102B50008010E06505E0FFE700BF002084F8580022
:102B600000BF304664E70000000300500001005041
:102B7000704770472DE9F0439BB004460E464FF076
:102B80000008306800B100BF00BF94F85800012869
:102B900003D102201BB0BDE8F083012084F8580067
:102BA00000BF0020179018902068B0F1A04F02D10C
:102BB0003148009001E000200090009850B9E06D8D
:102BC00040F02000E06500BF002084F8580000BFFE
:102BD0000120DFE7009805F032FD0746206805F088
:102BE0002EFDD8BBD7BB254D306800B394F8380014
:102BF000716841EA4030A96821F460410843A86047
:102C00004FF0A04005F00CFD81461B4805F008FD83
:102C100049EA0009B9F1000F27D1B16830680843CB
:102C2000A96840F61F7291430843A8601DE0A86898
:102C300020F46040A8604FF0A04005F0F1FC814610
:102C40000D4805F0EDFC49EA0009B9F1000F0CD17F
:102C5000A86840F61F718843A86006E0FFE7E06DB2
:102C600040F02000E0654FF0010800BF002084F82C
:102C7000580000BF40468DE700010050000300509F
:102C80002DE9F84F05460C464FF0000A0020009051
:102C9000FE49E068884200D000E000BF00BF95F820
:102CA0005800012802D10220BDE8F88F012085F8E4
:102CB000580000BF286805F0BDFC00287DD12968B8
:102CC000D4E9002001F1300CC0F3012B0CEB8B0395
:102CD000D3F800C000F01F0E4FF01F0B0BFA0EFBD5
:102CE0002CEA0B0C00F01F0BC2F3846E0EFA0BFEE5
:102CF0004CEA0E0CC3F800C000BF286805F09AFC2F
:102D00008146286805F06EFC8046B9F1000F64D159
:102D1000B8F1000FFBD1A068B0F1004F0AD12168D3
:102D20000022286805F0A2FC4FF00041286805F059
:102D3000E7FC08E0A2682168286805F097FC0021FC
:102D4000286805F0DDFC60692968C968C1F3C10124
:102D5000490000FA01F7206904283FD0286822685A
:102D6000216900F1600C0CEB8103D3F800C0DFF89F
:102D700020B30CEA0B0C02F0F84B4BF0004B4BEA83
:102D8000070B4CEA0B0CC3F800C000BF2868A2690F
:102D9000216900F1600C0CEB8103D3F800C02CF02A
:102DA000807C4CEA020CC3F800C000BF2868227F78
:102DB0002169012A02D1520601E0C6E10022134630
:102DC00000F1600C0CEB8102D2F800C02CF0007C0A
:102DD0004CEA030CC2F800C000BFA7E0002128683D
:102DE00005F0E9FBC0F3120030B90021286805F0B6
:102DF000E2FBC0F3846007E00021286805F0DBFBFC
:102E000090FAA0F0B0FA80F02168C1F3120119B96C
:102E10002168C1F3846104E0216891FAA1F1B1FA5B
:102E200081F1884204D100221146286805F052FC45
:102E30000121286805F0BFFBC0F3120030B9012161
:102E4000286805F0B8FBC0F3846007E0012128681A
:102E500005F0B1FB90FAA0F0B0FA80F02168C1F360
:102E6000120119B92168C1F3846104E0216891FA63
:102E7000A1F1B1FA81F1884204D100220121286830
:102E800005F028FC0221286805F095FBC0F312002C
:102E900030B90221286805F08EFBC0F3846007E09A
:102EA0000221286805F087FB90FAA0F0B0FA80F0C4
:102EB0002168C1F3120119B92168C1F3846104E0EA
:102EC000216891FAA1F1B1FA81F1884204D100227E
:102ED0000221286805F0FEFB0321286805F06BFB42
:102EE000C0F3120030B90321286805F064FBC0F379
:102EF000846007E00321286805F05DFB90FAA0F0EC
:102F0000B0FA80F02168C1F3120119B92168C1F348
:102F1000846104E0216891FAA1F1B1FA81F188425B
:102F200004D100220321286805F0D4FB286805F0AD
:102F300072FB002872D12868E2682168D0F8B030AE
:102F4000C1F3120C23EA0C0302F0180BDFF844C1A2
:102F50002CFA0BFC0CEA010C43EA0C03C0F8B0306D
:102F600000BF4A49E068884258D12368C3F312037E
:102F70001BB92368C3F3846304E0236893FAA3F3C3
:102F8000B3FA83F35B1C03F01F03092B3ED82368BD
:102F9000C3F312031BB92368C3F3846304E02368FB
:102FA00093FAA3F3B3FA83F35B1C03F01F034FF010
:102FB000010C0CFA03FC2368C3F312031BB923684A
:102FC000C3F3846304E0236893FAA3F3B3FA83F3AF
:102FD0005B1C03F01F034CEA836C2368C3F31203EA
:102FE0001BB92368C3F3846304E0236893FAA3F353
:102FF000B3FA83F35B1C03F01F0303EB43034FF0AF
:10300000000B4BEA03534CEA030347E02368C3F386
:10301000120323B92368C3F3846305E043E0236804
:1030200093FAA3F3B3FA83F35B1C03F01F034FF08F
:10303000010C0CFA03FC2368C3F312031BB92368C9
:10304000C3F3846304E0236893FAA3F3B3FA83F32E
:103050005B1C03F01F034CEA836C2368C3F3120369
:103060001BB92368C3F3846304E0236893FAA3F3D2
:10307000B3FA83F35B1C03F01F030A3B03EB430328
:103080004FF0007B4BEA035306E0000000007F4056
:1030900000F0FF03FFFF07004CEA03031946A26894
:1030A000286805F0E3FA2F492068084050B300BFB4
:1030B0002D48806800F0E07600BF2C4920688842E7
:1030C00003D02B49206888421DD106F40000D0B9F6
:1030D0002868B0F1A04F3ED146F40001224805F027
:1030E000EDFA244800682449B0FBF1F0401C00EBE5
:1030F00040008000009002E00098401E0090009880
:103100000028F9D127E01D49206888420CD106F03B
:10311000807048B91A49286888421CD046F08071EE
:10312000114805F0CBFA16E016492068884212D102
:1031300006F4800078B91249286888420BD046F41A
:103140008001094805F0BAFA05E0E86D40F020007A
:10315000E8654FF0010A00BF002085F8580000BF65
:103160005046A1E50000088000030050000021C384
:103170001000C0901C000020400D0300000052C74A
:1031800000010050000084CB70477047704700007A
:103190002DE9F84F0446002000902068056820685B
:1031A0004668C54805F002FA074605F00200022805
:1031B00011D106F0020002280DD1E06D00F01000E0
:1031C00018B9E06D40F40060E0652046FFF7F4F8C0
:1031D00002202168086005F00400042803D106F0ED
:1031E0000400042807D005F0080008285FD106F085
:1031F000080008285BD1E06D00F0100018B9E06D00
:1032000040F40070E065206805F01EFA002848D000
:10321000AA492068884202D14FF0A04000E020680F
:103220002168884204D01FB1052F01D0092F03D196
:103230002068D0F80C800AE0A0492068884202D1BA
:103240004FF0A04000E020688346DBF80C8008F4D3
:103250000050B0F5005F24D02068006800F008003E
:1032600008281ED1206805F0E5F990B9206840686B
:1032700020F00C0021684860E06D20F48070E0656B
:10328000E06D00F4805060B9E06D40F00100E06551
:1032900007E0E06D40F01000E065206E40F00100B6
:1032A00020662046FFF770FF0C202168086005F0BB
:1032B0002000202803D106F02000202807D005F0A8
:1032C0004000402872D106F0400040286ED1E06DE9
:1032D00000F0100018B9E06D40F40050E06520687F
:1032E000C16C01F4C07109B9012100E000218A46D6
:1032F00000BF206805F0A8F981467049206888421F
:1033000002D14FF0A04000E020682168884204D03C
:103310001FB1062F01D0072F03D12068D0F80C80F1
:103320000AE066492068884202D14FF0A04000E0E0
:1033300020688346DBF80C80BAF1000F30D008F02B
:10334000007028B1B9F1000F2AD008F4005038BB42
:103350002068006800F04000402821D108F40010E7
:10336000F0B9206805F03EF990B92068406820F077
:10337000600021684860E06D20F48050E065E06DF9
:1033800000F4807060B9E06D40F00100E06507E096
:10339000E06D40F01000E065206E40F00100206616
:1033A0002046FFF721FB60202168086005F08000BF
:1033B00080280DD106F08000802809D1E06D40F40E
:1033C0008030E065204600F0A9F98020216808607F
:1033D00005F48070B0F5807F0FD106F48070B0F5F1
:1033E000807F0AD1E06D40F40030E0652046FFF7B1
:1033F000BFFB4FF480702168086005F40070B0F5E1
:10340000007F0FD106F40070B0F5007F0AD1E06DA7
:1034100040F48020E0652046FFF7ABFB4FF40070DE
:103420002168086005F0100010282AD106F010006D
:10343000102826D1E06B10B90120009010E047B1B0
:1034400000BF1D48806800F4604048B10120009032
:1034500006E02068C06800F0010008B1012000907B
:10346000009801280AD1E06D40F48060E065206E8C
:1034700040F0020020662046FFF788FE10202168F9
:10348000086005F48060B0F5806F13D106F48060A9
:10349000B0F5806F0ED1E06D40F48040E065206EA5
:1034A00040F0080020664FF48060216808602046E4
:1034B000FFF7AEFABDE8F88F00030050000100509E
:1034C0002DE9F84304464FF000080020009014B99D
:1034D0000120BDE8F883606920B194F82400012838
:1034E00000D100BFE06D30B9204600F019F900208E
:1034F000206684F8580020688168C1F3407131B1BA
:10350000206881687E4A1140816000BF00BF20684A
:1035100005F08BF8B0B9206881687A4A114041F013
:103520008051816000BF784800687849B0FBF1F0B5
:10353000401C4000009002E00098401E009000985F
:103540000028F9D1206805F070F848B9E06D40F026
:103550001000E065206E40F0010020664FF0010889
:10356000206805F067F80646E06D00F010000028BE
:1035700077D1002EFCD1E06D20F4807040F0020085
:10358000E065206805F047F8B0B94FF0A04005F0BD
:1035900042F881465E4805F03EF849EA0009B9F173
:1035A000000F09D160685B49896821F47C110143EF
:1035B000584A916000BF00BF607FE16B41EA403034
:1035C000E1680843A168084394F8241040EA0145E3
:1035D00094F82400012803D1208D401E45EA40457F
:1035E000E06A28B1A08D00F47870216B0843054390
:1035F0002068C0684849084028432168C86020689E
:10360000006920F04060616B084321680861206810
:1036100004F0E8FF0746002E50D1EFBB207F0021C9
:1036200041EA803194F8380041EA40052068C068DA
:1036300044F20201884328432168C860206988B1A8
:103640002068006940F48030216808612068D0F863
:10365000C0006FF30D00216908432168C1F8C00064
:103660000EE045E02068006920F4803021680861A0
:103670002068D0F8C0006FF30D002168C1F8C000C9
:1036800094F84000012813D1606C40F00101A06C57
:103690000843E16C084300E010E0216D0843216815
:1036A000096940F2FC72914308432168086105E012
:1036B0002068006920F00100216808616069012824
:1036C00009D12068006B20F00F00216A491E0843D1
:1036D0002168086305E02068006B20F00F00216876
:1036E0000863E06D20F0020040F00100E06505E0B5
:1036F000E06D40F01000E0654FF001084046E8E65C
:10370000C0FFFF5FC0FFFF7F1C000020400D0300D3
:1037100000010050000300500740F0FF7047000018
:1037200010B598B00446142113A8FCF74EFE4421AE
:1037300002A8FCF74AFE2068B0F1A04F43D14FF435
:10374000004002904003119002A802F03DF808B139
:10375000FEF711F94E480068401C4D4908600846C4
:10376000006801280DD100BF4A48C06C40F40050E9
:103770004849C8640846C06C00F40050019000BF7E
:1037800000BF00BF4348C06C40F001004149C8641D
:103790000846C06C00F00100019000BF00BF0F2080
:1037A0001390032014900020159013A94FF090401F
:1037B00000F076FE00220521122001F007F8122009
:1037C00000F0F0FF61E03449206888425DD1C0011B
:1037D00002904003119002A801F0F6FF08B1FEF735
:1037E000CAF82B480068401C294908600846006850
:1037F00001280DD100BF2748C06C40F40050254976
:10380000C8640846C06C00F40050019000BF00BFBF
:1038100000BF2048C06C40F002001E49C864084642
:10382000C06C00F00200019000BF00BF04201390A4
:10383000032014900020159013A9184800F030FEC2
:103840001748184908602420486000211548816005
:10385000C1608021016149004161890081612021AD
:10386000C161C901016200F03FFA08B1FEF783F8B7
:1038700000BF0C486065846200BF00220521122051
:1038800000F0A4FF122000F08DFF18B010BD000062
:103890000C0000200010024000010050000400480D
:1038A0001C000240C80A00202DE9F04104460F46E2
:1038B00090463D4804F07AFE0646206804F0BAFEC1
:1038C00000286DD100BF94F85800012802D10220D1
:1038D000BDE8F081012084F8580000BF1EB1052E1C
:1038E00001D0092E56D12046FDF76AFD0546002D70
:1038F0004BD1E06D40F60161884340F48070E06593
:103900002A492068884202D14FF0A04000E0206898
:103910002168884200D01EB9E06D20F48010E06577
:10392000E06D00F4805020B1206E20F0060020668B
:1039300001E0002020661E48616DC8621D48616D6F
:1039400008631D48616D48631C202168086000BF42
:10395000002084F8580000BF2068406840F0100044
:10396000216848602068C06840F001002168C86094
:10397000226802F1400143463A46606D00F01CFAAD
:103980000546206804F06AFE0BE000BF002084F8C2
:10399000580006E0012500BF002084F8580000E030
:1039A0000225284694E70000000300500001005063
:1039B0006D1200081D130008FF12000870B50346C1
:1039C0000C4600201F2104F001050DB9012022E062
:1039D00000BF0D1EA1F1010106D001F01F06012557
:1039E000B5402540002DF4D08AB1082A0BD0102A0A
:1039F00005D0182A0CD1072900D301200AE0082994
:103A000000D3012006E0102900D3012002E001E0EC
:103A1000012000BF00BF40B91D686C611D68AD6822
:103A200025F0180515431E68B56070BD10B5044635
:103A30000CB9012010BD607F20B9002020772046FE
:103A400000F036F802206077207948B917482168DD
:103A500048612068806820F018002168886007E0CD
:103A60002046D4E90212FFF7A9FF08B10120E1E7DF
:103A7000607920B94FF0FF302168086102E02168C9
:103A8000206908612068806820F06000616908434F
:103A9000216888602068806820F08000A169084360
:103AA00021688860012060770020C3E7B71DC1044A
:103AB00008B5094A016891420DD100BF0749896CD8
:103AC00041F48051054A91641146896C01F480519A
:103AD000009100BF00BF08BD00300240001002404E
:103AE0000146002091F82520022A03D00422CA634F
:103AF000012027E00A68126822F00E020B681A60A3
:103B00008A6C126822F480728B6C1A600A681268E0
:103B100022F001020B681A6091F8442002F01F03A2
:103B200001229A400B6C5A60D1E913325A604A6DF7
:103B300042B14A6D126822F480724B6D1A60D1E96D
:103B400016325A60012281F8252000BF002281F838
:103B5000242000BF704770B50446002594F8250066
:103B600002280BD00420E063012084F8250000BF68
:103B7000002084F8240000BF012534E0206800689C
:103B800020F00E00216808602068006820F0010025
:103B900021680860A06C006820F48070A16C086047
:103BA00094F8440000F01F0101208840216C486017
:103BB000D4E913104860606D40B1606D006820F476
:103BC0008070616D0860D4E916104860012084F8A7
:103BD000250000BF002084F8240000BFA06B10B1B6
:103BE0002046A16B8847284670BD70B50446206CFE
:103BF00005682068066894F8440000F01F0104205E
:103C000088402840E0B106F00400C8B12068006890
:103C100000F0200028B92068006820F00400216826
:103C2000086094F8440000F01F0104208840216CD3
:103C30004860206B002856D02046216B884752E010
:103C400094F8440000F01F0102208840284018B377
:103C500006F0020000B32068006800F0200040B9C0
:103C60002068006820F00A0021680860012084F8BC
:103C7000250094F8440000F01F0102208840216CC8
:103C8000486000BF002084F8240000BFE06A50B301
:103C90002046E16A884726E094F8440000F01F01BE
:103CA000082088402840F0B106F00800D8B120680C
:103CB000006820F00E002168086094F8440000F0CD
:103CC0001F0101208840216C48600120E06384F8D6
:103CD000250000BF002084F8240000BF606B10B1F5
:103CE0002046616B884770BD70B504460CB9012051
:103CF00070BD2F49206888420BD22E492068401A97
:103D00001421B0FBF1F0800060642A480838206478
:103D10000AE027492068401A1421B0FBF1F0800026
:103D20006064234808382064022084F82500206855
:103D3000056847F6F0708543D4E90201084321691C
:103D4000084361690843A1690843E1690843216A9E
:103D500008430543206805602046FDF7BDFCA068C8
:103D6000B0F5804F01D1002060602079A16C08601F
:103D7000D4E913104860606860B16068042809D80D
:103D80002046FDF7CBFC0020616D0860D4E91610D9
:103D9000486003E000206065A065E0650020E06306
:103DA000012084F82500002084F8240000BF9FE74C
:103DB00008040240080002402DE9F04104460D4687
:103DC00016461F464FF0000800BF94F82400012853
:103DD00002D10220BDE8F081012084F8240000BF58
:103DE00094F8250001283FD1022084F82500002006
:103DF000E0632068006820F00100216808603B460D
:103E0000324629462046FDF79BFC206B30B12068E6
:103E1000006840F00E00216808600BE02068006830
:103E200020F00400216808602068006840F00A0063
:103E300021680860A06C006800F4803028B1A06C94
:103E4000006840F48070A16C0860606D28B1606DFE
:103E5000006840F48070616D08602068006840F080
:103E600001002168086006E000BF002084F82400FB
:103E700000BF4FF002084046ACE77047704702466B
:103E8000402905D11368D3F8903003F00F0004E007
:103E90001368D3F8983003F00F0070472DE9F04312
:103EA00004460E469C46002394F85C80B8F1020F4D
:103EB0007DD1402E25D12068D0F8900000F00F0071
:103EC00030B9206E40F4807020660120BDE8F08398
:103ED0002068D0F89000C0F3006030B12068D0F8BE
:103EE0008000C0F3402000B101232068D0F890008A
:103EF000C0F30120034403EBC309A06C00EBC9012C
:103F000023E02068D0F8980000F00F0028B9206E58
:103F100040F4807020660120D8E72068D0F898002F
:103F2000C0F3006030B12068D0F88000C0F30020FA
:103F300000B101232068D0F89800C0F301200344A9
:103F400003EBC309E06C00EBC901086800F0804096
:103F50005060506820B90868C0F38A40106003E0E0
:103F6000086820F060401060086800F00050906021
:103F7000086800F000401061091D088880B2D06117
:103F80000868C0F30340D060086800F480105061F6
:103F9000086800F4001090610868C0F306601062C1
:103FA0000868C00F5062091D0F46002504E015E0A7
:103FB000785D0CF805006D1CDFF82C90D06819F8BE
:103FC0000000A842F4D8402E03D12068C0F89430F5
:103FD00002E02068C0F89C30002077E7206E40F0B7
:103FE00008002066012071E74C21010870472DE987
:103FF000FC5F04462068006D00F4E0572068406DC7
:1040000007402068006D00F007082068406D00EA56
:1040100008082068006D00F038092068406D00EA4B
:1040200009092068006D00F4710A2068406D00EAFB
:104030000A0A2068006D00F4602B2068406D00EAD9
:104040000B0B2068456D2068066DC6F3801040B1EB
:10405000C5F3801028B14020216808652046FFF78D
:10406000C5FFC6F30020A0B1C5F3002088B12068C9
:10407000D0F8D80000902068D0F8E00000990840FF
:1040800000904FF48070216808652046009900F088
:1040900003FA2FB1206807653946204600F0FEF983
:1040A000B8F1000F06D02068C0F850804146204685
:1040B00000F0DAF9B9F1000F06D02068C0F850908E
:1040C0004946204600F0DBF9C6F3402048B1C5F36D
:1040D000402030B14FF4007021680865204600F0A0
:1040E000DEF9C6F3C01098B1C5F3C01080B12068E6
:1040F000D0F8D40001902068D0F8DC000199084085
:1041000001908020216808652046019900F0C5F9DA
:10411000C6F3403048B1C5F3403030B14FF40050E1
:1041200021680865204600F0B6F9C6F3C03048B1F2
:10413000C5F3C03030B14FF4004021680865204617
:1041400000F0A8F9C6F3803050B1C5F3803038B123
:104150004FF4804021680865206E40F080002066A2
:10416000BBF1000F06D02068C0F850B05946204679
:10417000FFF784FEBAF1000F06D02068C0F850A007
:10418000206E40EA0A002066206E10B12046FFF73C
:1041900074FEBDE8FC9F000070B504460CB9012018
:1041A00070BD81492068884200D100BFA068B0F589
:1041B000407F00D100BF94F85C0028B9002084F84B
:1041C0005D00204600F0F4F82068806920F01000BF
:1041D0002168886100F050FA05460DE000F04CFAC5
:1041E000401B0A2808D9206E40F0010020660320F9
:1041F00084F85C000120D3E72068806900F00800A3
:104200000828EBD02068806940F0010021688861AF
:1042100000F032FA05460DE000F02EFA401B0A28A5
:1042200008D9206E40F001002066032084F85C006D
:104230000120B5E72068806900F001000028EBD07C
:104240002068806940F00200216888615649206832
:10425000884202D1554960680860207C012806D157
:104260002068806920F040002168886105E02068AE
:10427000806940F0400021688861607C012806D197
:104280002068806940F480402168886105E02068EA
:10429000806920F4804021688861A07C012806D1D3
:1042A0002068806920F480502168886105E02068DA
:1042B000806940F48050216888612068806920F41A
:1042C0004070A1680843216888612068806920F0F7
:1042D000A400216888612068006920F0100021682E
:1042E0000861E068012806D12068806940F0040078
:1042F0002168886120E0E068F0B1E068022815D00C
:104300002068806940F08000216888612068006929
:1043100040F0100021680861E06803280CD1206893
:10432000806940F020002168886105E0206880698C
:1043300040F0200021688861207E401E4106E0692F
:10434000401E41EA0020216A491E0843A18A491EF5
:1043500040EA01402168C861A068B0F5407F0FD1F4
:10436000A06A401EE16A491E40EA0121206B401EFE
:1043700041EA0011A08C401E41EA00402168C8605B
:104380002068D0F8C000E16B08432168C1F8C00084
:104390002046FDF74FFB0020A0652066012084F831
:1043A0005C000020FCE60000006400400065004066
:1043B00010B598B00446142113A8FCF706F8442160
:1043C00002A8FCF702F825492068884243D18014EE
:1043D000029000030E9002A801F0F6F908B1FDF773
:1043E000CAFA00BF1E48806D40F000701C49886505
:1043F0000846806D00F00070019000BF00BF00BF54
:104400000846C06C40F00200C8640846C06C00F06A
:104410000200019000BF00BF4FF4407013900220D3
:10442000149000201590032016900920179013A9CE
:104430000C4800F035F800220621152000F0C6F9DE
:10444000152000F0AFF900220621162000F0BEF979
:10445000162000F0A7F918B010BD0000006400405D
:10446000001002400004004870B505460C4604F0F8
:10447000010018B140212846FDF790FA70BD70B5D3
:1044800005460C4604F0080018B141212846FDF706
:1044900085FA70BD70477047704770477047704726
:1044A00078B502460B460021CAE001268E401D6801
:1044B00005EA0604002C73D01D7905F00305012DD3
:1044C00004D01D7905F00305022D13D190684E002C
:1044D0000325B540A8434E00DD68B54028439060F1
:1044E000506801258D40A8431D79C5F300158D4006
:1044F000284350601D7905F00305032D09D0D068CD
:104500004E000325B540A8434E009D68B5402843A2
:10451000D0601D7905F00305022D13D1CE0802F1FC
:10452000200555F826004D07EE0E0F25B540A8438F
:104530004E07F60E1D69B5402843CE0802F120054E
:1045400045F8260010684E000325B540A8431D79A4
:1045500005F003054E00B540284310605D6805F482
:104560004035002D6BD000BF384D2D6E45F0010554
:10457000364E356635462D6E05F00105009500BFB7
:1045800000BF4FEAB6358E0855F826008D072E0F6E
:104590000F25B540A843B2F1904F02D100251AE093
:1045A0004DE02B4DAA4201D1012514E0294DAA422C
:1045B00001D102250FE0284DAA4201D103250AE0CE
:1045C000264DAA4201D1042505E0254DAA4201D17C
:1045D000052500E006258E07360FB5402843214DFE
:1045E0008E0845F82600204D2868A0435D6805F434
:1045F000801505B120431C4D28602D1D2868A0435F
:104600005D6805F4001505B12043174D2D1D286088
:10461000154D2D1F2868A0435D6805F4003505B1D0
:104620002043114D2D1F28602D1F2868A0435D6871
:1046300005F4803505B120430B4D083D2860491C29
:104640001D68CD40002D7FF430AF78BD00100240D2
:104650000004004800080048000C00480010004812
:104660000014004808000140080401400AB18161BB
:1046700000E0816270470000014800687047000058
:1046800010000020034800680349096808440149F4
:1046900008607047100000201800002010B50024AA
:1046A000032000F0D1F80F2000F008F808B1012431
:1046B00001E000F051F8204610BD0000F0B587B0D1
:1046C00004460026002700BF1E48006E40F48020EC
:1046D0001C4908660846006E00F48020009000BF68
:1046E00000BF01A902A801F039FB01F071FB0646E9
:1046F0001548B6FBF0F0471E14481549086040F213
:10470000E7311348C160476000210161816002F018
:104710001EFC054695B90E4802F052FC05466DB9DF
:104720001A2000F03FF8102C07D2002221461A2050
:1047300000F04CF80748046000E00125284607B067
:10474000F0BD00000010024040420F000048014050
:10475000D80E00201400002008B500BF1048006EDD
:1047600040F001000E4908660846006E00F00100A6
:10477000009000BF00BF00BF0846806D40F0805031
:1047800088650846806D00F08050009000BF00BF33
:1047900000220F21901E00F019F801F00BF808BD5F
:1047A000001002400146084600280DDB00BF00BF94
:1047B00000F01F0301229A4043099B0003F1E0230C
:1047C000C3F8002100BF00BF00BF70472DE9F05FB4
:1047D00080460D4616460AF06FFF074639462A46C0
:1047E000334601F00700C0F1070ABAF1040F02D9FD
:1047F0004FF0040A01E0C0F1070AD14600F1040AB3
:10480000BAF1070F02D24FF0000A01E0A0F1030A4B
:10481000D4464FF0010A0AFA09FAAAF1010A0AEA93
:10482000020A0AFA0CFA4FF0010B0BFA0CFBABF17F
:10483000010B0BEA030B4AEA0B04214640460AF03F
:1048400043FFBDE8F09F000000BF00F00702064BE9
:1048500019684FF6FF031940044B0B4343EA02214A
:10486000014B196000BF70470CED00E00000FA0535
:10487000024611680120C2F8D002002082F8C80266
:1048800031F8540F40F001000880088840F0020021
:1048900021F854090020704770B504460D4615B143
:1048A000012D1CD10EE0607A38B106F031FE0D48C2
:1048B000006820F006000B490860D4F8D80209F01F
:1048C00031F90CE0D4F8D80209F0C1F9607A28B1C6
:1048D0000448006840F006000249086000BF00BFBD
:1048E00070BD000010ED00E070B505460C4604F008
:1048F0008000802808D104F0070000EB800605F155
:10490000100000EBC60105E004EB840605F5A87075
:1049100000EBC6011AB900200873CB8004E0012027
:1049200008730B81180C4881002070BD70B50446D7
:104930000D4605EB850304F1100101EBC3014A6943
:104940002946D4F8D80208F065FF70BD70B504465A
:104950000D4605EB850304F5A87101EBC3014A6917
:104960002946D4F8D80208F0C6FF70BD70B50446D9
:104970000E4606F0800080280AD106F0070000EB02
:10498000800104F1100000EBC1050120687009E00E
:1049900006F0070000EB800104F5A87000EBC105EC
:1049A0000020687006F00700287000BF94F890029D
:1049B000012801D1022070BD012084F8900200BFBF
:1049C0002946206809F06DFE00BF002084F890029F
:1049D00000BF00BFEFE770B504460E4606F00F00BB
:1049E0002179884201D9012070BD06F0800080281D
:1049F0000AD106F0070000EB800104F1100000EB83
:104A0000C1050120687009E006F0070000EB800195
:104A100004F5A87000EBC105002068700020A870A4
:104A200006F00700287000BF94F89002012801D119
:104A30000220D9E7012084F8900200BF29462068AF
:104A400009F08AFF00BF002084F8900200BF00BF79
:104A5000CAE72DE9F04105460C46174607F48040A9
:104A600000284FD02868B0F85010207801EBC00023
:104A7000801C296801F58061405AC0F30906A069CD
:104A8000B04203D3A069801BA06101E00020A061B7
:104A9000A069A8B900BF22785200296831F8121025
:104AA0004BF68F7201EA020080F4005040F400419E
:104AB00041F0800123785B002A6822F8131000BFC0
:104AC00007F04000A8B100BF00BF2278520029685B
:104AD00031F8121048F68F7201EA020040F40041EA
:104AE00041F0C00123785B002A6822F8131000BF50
:104AF00000BF002E54D022896169334628680AF02D
:104B0000F1FC4DE02868B0F85010207801EBC000AF
:104B1000801D296801F58061405AC0F30906A0692B
:104B2000B04203D3A069801BA06101E00020A06116
:104B3000A069A8B900BF22785200296831F8121084
:104B40004BF68F7201EA020080F4005040F40041FD
:104B500041F0800123785B002A6822F8131000BF1F
:104B600007F04000A8B900BF00BF227852002968B2
:104B700031F8121048F68F7201EA020040F4004149
:104B800041F0C00123785B002A6822F8131000BFAF
:104B900000BF2EB162896169334628680AF0A2FC21
:104BA0003046BDE8F0812DE9F04705460C469046B9
:104BB00008F0400000287ED02868B0F85010207817
:104BC00001EBC000801C296801F58061405AC0F3E8
:104BD0000907A069B84203D9A069C01BA06101E020
:104BE0000020A061A069002866D100BF6078B8B934
:104BF00000BF29682A68B2F85020114422780223A5
:104C000003EBC20201F58063D01800BF0288C2F333
:104C100009020280028842F40042028000BF12E0D2
:104C2000607801280FD100BF28682A68B2F85020A8
:104C300010442278022303EBC20200F58063D118EE
:104C400000220A8000BF00BF00BF29686078F8B961
:104C500000BF2B68D5F800C0BCF850C0634494F87E
:104C600000C04FF0060909EBCC0C03F580690CEB92
:104C7000090000BFB0F800C0CCF3090CA0F800C0D8
:104C8000B0F800C04CF4004CA0F800C000BF0FE02A
:104C9000607801280CD12868B0F8500001442078D1
:104CA000062303EBC00001F58063C21800201080CA
:104CB00000BF217801E0B0E01CE02846FFF736FE97
:104CC00008F48040002814D000BF00BF22785200B2
:104CD000296831F8121048F68F7201EA020040F498
:104CE000004141F4814123785B002A6822F81310C7
:104CF00000BFCFE108F48040A8B100BF00BF227818
:104D00005200296831F8121048F68F7201EA020049
:104D100040F4004141F4814123785B002A6822F885
:104D2000131000BF00BF94F824000128E1D160698E
:104D300038446061E0693844E0612169206A884252
:104D400004D32669206A801B20620BE0206A20B908
:104D50003E46002084F8240004E0002084F824006B
:104D6000266A206200BF6078E0BB00BF2A6829681D
:104D7000B1F850100A442178022303EBC10102F577
:104D800080631944084600BF0388C3F30903038006
:104D90003E2E10D900BF710906F01F0303B9491E4A
:104DA00003884FF4004C4CEA812C1FFA8CFC43EA38
:104DB0000C03038014E026B9038843F40043038006
:104DC0000EE000BF710806F0010303B1491C03881F
:104DD0004FF6FF7C0CEA812C43EA0C03038000BFF2
:104DE00000BF12E0FFE7607801280ED100BF2868FD
:104DF0002A68B2F8502010442278022303EBC20242
:104E000000F58063D1180E8000BF00BFB3B22289C5
:104E1000616928680AF090FB3CE12868B0F85010FE
:104E2000207801EBC000801D296801F58061405A9F
:104E3000C0F30907A069B84203D3A069C01BA061F1
:104E400001E00020A061A06900287ED100BF607849
:104E5000B8B900BF29682A68B2F8502011442278F6
:104E6000022303EBC20201F58063D01800BF028861
:104E7000C2F309020280028842F40042028000BFAD
:104E800012E0607801280FD100BF28682A68B2F8C4
:104E9000502010442278022303EBC20200F5806305
:104EA000D11800220A8000BF00BF00BF29686078C7
:104EB000F8B900BF2B68D5F800C0BCF850C06344F7
:104EC00094F800C04FF0060909EBCC0C03F580699B
:104ED0000CEB090000BFB0F800C0CCF3090CA0F83F
:104EE00000C0B0F800C04CF4004CA0F800C000BFF7
:104EF0000FE0607801280CD12868B0F85000014418
:104F00002078062303EBC00001F58063C21800205F
:104F1000108000BF21782846FFF708FD08F4804084
:104F2000002816D100BF00BF22785200296831F84E
:104F3000121048F68F7201EA020040F4004141F479
:104F4000814123785B002A6800E003E022F8131017
:104F500000BF9FE008F48040A8B900BF00BF2278DE
:104F60005200296831F8121048F68F7201EA0200E7
:104F700040F4004141F4814123785B002A6822F823
:104F8000131000BF00BF94F8240001287DD1606990
:104F900038446061E0693844E0612169206A8842F0
:104FA00004D32669206A801B20620BE0206A20B9A6
:104FB0003E46002084F8240004E0266A0020206297
:104FC00084F8240000BF2A686078A8BB00BFD5F829
:104FD00000C02968B1F850108C4421784FF00609C0
:104FE00009EBC1010CF580694944084600BFB0F8DF
:104FF0000090C9F30909A0F800903E2E14D900BF13
:10500000710906F01F09B9F1000F00D1491EB0F86F
:1050100000904FF4004A4AEA812A1FFA8AFA49EAC4
:105020000A09A0F800901BE03EB9B0F8009049F4DE
:105030000049A0F8009013E014E000BF710806F0EA
:105040000109B9F1000F00D0491CB0F800904FF6EB
:10505000FF7A0AEA812A49EA0A09A0F8009000BF0B
:1050600000BF0EE0607801280BD12868B0F850002E
:1050700002442078062101EBC00002F5806143184C
:105080001E8000BFB3B2628900E003E06169286856
:105090000AF052FA00BF22785200296831F8121043
:1050A00048F6BF7201EA020080F0100080F0200094
:1050B00040F4004141F0800223785B00296821F828
:1050C000132000BF0020BDE8F087024601F0070072
:1050D00000EB800302F5A87000EBC300C0697047C5
:1050E0002DE9F04705460E4690461F464FF0000951
:1050F00006F0800080280AD106F0070000EB80014E
:1051000005F1100000EBC1040120607009E006F019
:10511000070000EB800105F5A87000EBC10400203A
:10512000607006F007002070C4F81080E770022F4E
:1051300001D10020207100BF95F89002012802D112
:105140000220BDE8F087012085F8900200BF2146CB
:10515000286809F051F800BF002085F8900200BFD0
:105160004846EEE72DE9F04105460E4617469846BB
:1051700006F0070000EB800105F5A87000EBC10404
:105180006761C4F818800020E061607006F00700D5
:1051900020702146286809F07AFC0020BDE8F081E3
:1051A00070B504460E4606F007002179884201D901
:1051B000012070BD06F0800080280AD106F00700AB
:1051C00000EB800104F1100000EBC10501206870C4
:1051D00007E006EB860104F5A87000EBC10500208E
:1051E00068700120A87006F00700287000BF94F8CE
:1051F0009002012801D10220DBE7012084F890020F
:1052000000BF2946206809F014FC00BF002084F884
:10521000900200BF00BFCCE72DE9F04105460E46E5
:1052200090461F4606F0070000EB800105F11000D4
:1052300000EBC104C4F81480A761012084F82400A5
:1052400027620020E0610120607006F007002070F6
:105250002146286809F01BFC0020BDE8F08170B5EC
:10526000044620680AF03AF9054605F40040B0F516
:10527000004F03D1204604F01BFC70BD05F4806094
:10528000B0F5806F10D12068B0F844004FF6FF31C0
:1052900008402168A1F84400204600F083F900216D
:1052A000204600F0ACF9E8E705F48040B0F5804F07
:1052B00009D12068B0F844004BF6FF71084021681E
:1052C000A1F84400D9E705F40050B0F5005F09D11A
:1052D0002068B0F844004DF6FF7108402168A1F83D
:1052E0004400CAE705F48050B0F5805F29D12068FA
:1052F000B0F840004FF6FB7108402168A1F840006B
:105300002068B0F840004FF6F77108402168A1F816
:10531000400094F8C802012806D1002084F8C80291
:1053200000212046FFF7B8FA204600F04DF920682A
:10533000B0F844004EF6FF7108402168A1F844001F
:105340009BE705F40060B0F5006F1CD12068B0F851
:10535000400040F008002168A1F840002068B0F843
:1053600044004FF2FF7108402168A1F84400206812
:10537000B0F8400040F004002168A1F84000204649
:1053800000F07AF979E705F0800080282FD12068B5
:10539000B0F844004FF67F7108402168A1F844003E
:1053A00094F8C802F8B92068B0F8400040F0040052
:1053B0002168A1F840002068B0F8400040F00800E3
:1053C0002168A1F84000012084F8C8022068B0F8E4
:1053D000540000F0F0008008C4F8CC0201212046FF
:1053E000FFF75AFA02E0204600F046F945E705F4D7
:1053F0000070B0F5007F0CD12068B0F844004FF683
:10540000FF5108402168A1F84400204600F0F0F860
:1054100033E705F48070B0F5807F09D12068B0F8DB
:1054200044004FF6FF6108402168A1F8440024E7DA
:1054300000BF22E770B504460CB9012070BD94F896
:10544000910228B9002084F89002204600F078F8F4
:10545000032084F89102206809F074FA00252AE0FC
:10546000012105EB850204F1100000EBC200417040
:1054700005EB850104F1100000F83150002105EB27
:10548000850200EBC200C17005EB850204F110003B
:1054900000EBC200016105EB850204F1100000EB96
:1054A000C200416105EB850204F1100000EBC2006F
:1054B0008161681CC5B22079A842D1DC00252AE0B0
:1054C000002105EB850204F5A87000EBC2004170D5
:1054D00005EB850104F5A87000F83150002105EBBB
:1054E000850200EBC200C17005EB850204F5A870CF
:1054F00000EBC200016105EB850204F5A87000EB2A
:10550000C200416105EB850204F5A87000EBC20002
:105510008161681CC5B22079A842D1DC94E80700FB
:1055200009F006FA00202073012084F89102A07A85
:10553000012802D12046FFF79BF900207EE70000FA
:1055400010B592B00446442101A8FAF73EFF134972
:10555000206888421FD14014019000200E9001A8BD
:1055600000F032F908B1FCF706FA00BF0C48806D74
:1055700040F400000A4988650846806D00F4000088
:10558000009000BF00BF002205211420FFF71EF984
:105590001420FFF707F912B010BD0000005C0040B6
:1055A0000010024070B5044601256079022801D040
:1055B000FCF7E1F92946D4F8D80208F0D4FAD4F877
:1055C000D80208F079FA70BD10B50446607A38B197
:1055D0000648006820F006000449086005F098FFBE
:1055E000D4F8D80208F09EFA10BD000010ED00E0DB
:1055F00010B50446D4F8D80208F09FFA10BD70B573
:1056000004460D4600BF94F89002012801D1022003
:1056100070BD012084F8900200BF257329462068E0
:1056200009F083FF00BF002084F8900200BF00BF94
:10563000EEE710B5044604F52671D4F8D80208F058
:10564000A9FA10BD10B5044600BF94F890020128D5
:1056500001D1022010BD012084F8900200BF206813
:1056600009F02BFF206809F05AF900BF002084F8E8
:10567000900200BF00BFEDE710B50446D4F8D80291
:1056800008F0E5FA607A28B10348006840F00600A7
:105690000149086010BD000010ED00E002468ABB21
:1056A0004148006800F4C060B0F5806F2BD13E48DF
:1056B0008030006820F480703B4BC3F880001846AF
:1056C000006820F4C06040F400701860374800683B
:1056D00032235843364BB0FBF3F0411C00E0491E27
:1056E0003148406900F48060B0F5806F01D1002935
:1056F000F5D12D48406900F48060B0F5806F51D13C
:105700000320704708E028488030006820F480704B
:10571000254BC3F8800045E0B2F5007F3AD122481E
:10572000006800F4C060B0F5806F2AD11E48803058
:10573000006840F480701C4BC3F880001846006875
:1057400020F4C06040F400701860184800683223EC
:105750005843174BB0FBF3F0411C00E0491E1248C0
:10576000406900F48060B0F5806F01D10029F5D167
:105770000D48406900F48060B0F5806F12D10320BD
:10578000BFE709488030006840F48070064BC3F8DA
:10579000800007E00448006820F4C06040F48060A6
:1057A000014B18600020ACE7007000401C00002096
:1057B00040420F000348806840F4804001498860FF
:1057C00070470000007000402DE9F84304460027B0
:1057D000B846206800F40020B0F5002F73D1B94618
:1057E000D348806D00F0805078B900BFD048806DFC
:1057F00040F08050CE4988650846806D00F08050AA
:10580000009000BF00BF4FF00109CA48006840F493
:105810008070C8490860FEF72FFF064606E0FEF7D5
:105820002BFF801B022801D9032705E0C14800682F
:1058300000F480700028F2D000BF002F46D1BC4891
:105840009030006800F44075CDB1206CA84216D0AD
:10585000B7489030006820F44075B548D0F8900003
:1058600040F48030B249C1F890000846D0F890006A
:1058700020F48030C1F890000846C0F8905005F040
:105880000100A0B1FEF7F8FE064608E0FEF7F4FEC0
:10589000801B41F28831884201D9032706E0A448E1
:1058A0009030006800F002000028EFD000BF5FB920
:1058B0009F489030006820F44070216C08439C4958
:1058C000C1F8900003E00CE0B84600E0B846B9F13A
:1058D000010F05D19648806D20F08050944988656D
:1058E00000BF207800F0010048B19148883000687E
:1058F00020F00300616808438D49C1F888002078D2
:1059000000F00200022809D189488830006820F0A0
:105910000C00A16808438649C1F88800207800F08F
:105920000400042809D182488830006820F0300043
:10593000E16808437E49C1F88800207800F008003B
:10594000082809D17A488830006820F0C000216911
:1059500008437749C1F88800207800F0200020280B
:1059600009D173488830006820F4406061690843B9
:105970006F49C1F88800207800F04000402809D124
:105980006B488830006820F44050A169084368499A
:10599000C1F88800207800F08000802809D1644890
:1059A0008830006820F44040E16908436049C1F84C
:1059B0008800208800F48070B0F5807F09D15C48B1
:1059C0008830006820F44030216A08435849C1F803
:1059D0008800208800F40070B0F5007F09D1544899
:1059E0008830006820F44020616A08435049C1F8BB
:1059F0008800208800F48060B0F5806F13D14C4897
:105A00008830006820F44010A16A08434849883172
:105A10000860A06AB0F5801F05D14548C06840F411
:105A200080104349C860208800F40060B0F5006F22
:105A300013D13F488830006820F44000E16A0843F1
:105A40003B4988310860E06AB0F5800F05D13848DD
:105A5000C06840F480103649C860208800F4805047
:105A6000B0F5805F13D132488830006820F0407074
:105A7000216B08432E4988310860206BB0F1807F8C
:105A800005D12B48C06840F480102949C86020889F
:105A900000F40050B0F5005F13D12548883000684D
:105AA00020F04060616B0843214988310860606BD9
:105AB000B0F1006F05D11E48C06840F480101C4949
:105AC000C860208800F48040B0F5804F13D118489A
:105AD0008830006820F04060A16B08431449883189
